{
  "contractName": "MultiSig",
  "abi": [
    {
      "constant": true,
      "inputs": [],
      "name": "owner1RequestedWithdrawTo",
      "outputs": [
        {
          "name": "",
          "type": "address"
        }
      ],
      "payable": false,
      "stateMutability": "view",
      "type": "function"
    },
    {
      "constant": true,
      "inputs": [],
      "name": "owner1RequestedWithdraw",
      "outputs": [
        {
          "name": "",
          "type": "bool"
        }
      ],
      "payable": false,
      "stateMutability": "view",
      "type": "function"
    },
    {
      "constant": true,
      "inputs": [],
      "name": "owner2",
      "outputs": [
        {
          "name": "",
          "type": "address"
        }
      ],
      "payable": false,
      "stateMutability": "view",
      "type": "function"
    },
    {
      "constant": true,
      "inputs": [],
      "name": "owner1",
      "outputs": [
        {
          "name": "",
          "type": "address"
        }
      ],
      "payable": false,
      "stateMutability": "view",
      "type": "function"
    },
    {
      "constant": true,
      "inputs": [],
      "name": "owner2RequestedWithdrawAtBlock",
      "outputs": [
        {
          "name": "",
          "type": "uint256"
        }
      ],
      "payable": false,
      "stateMutability": "view",
      "type": "function"
    },
    {
      "constant": true,
      "inputs": [],
      "name": "owner2RequestedWithdraw",
      "outputs": [
        {
          "name": "",
          "type": "bool"
        }
      ],
      "payable": false,
      "stateMutability": "view",
      "type": "function"
    },
    {
      "constant": true,
      "inputs": [],
      "name": "owner2RequestedWithdrawTo",
      "outputs": [
        {
          "name": "",
          "type": "address"
        }
      ],
      "payable": false,
      "stateMutability": "view",
      "type": "function"
    },
    {
      "constant": true,
      "inputs": [],
      "name": "balance",
      "outputs": [
        {
          "name": "",
          "type": "uint256"
        }
      ],
      "payable": false,
      "stateMutability": "view",
      "type": "function"
    },
    {
      "constant": true,
      "inputs": [],
      "name": "owner1RequestedWithdrawAtBlock",
      "outputs": [
        {
          "name": "",
          "type": "uint256"
        }
      ],
      "payable": false,
      "stateMutability": "view",
      "type": "function"
    },
    {
      "inputs": [
        {
          "name": "_owner1",
          "type": "address"
        },
        {
          "name": "_owner2",
          "type": "address"
        }
      ],
      "payable": false,
      "stateMutability": "nonpayable",
      "type": "constructor"
    },
    {
      "payable": true,
      "stateMutability": "payable",
      "type": "fallback"
    },
    {
      "constant": false,
      "inputs": [
        {
          "name": "_amount",
          "type": "uint256"
        },
        {
          "name": "_to",
          "type": "address"
        }
      ],
      "name": "withdraw",
      "outputs": [],
      "payable": false,
      "stateMutability": "nonpayable",
      "type": "function"
    }
  ],
  "bytecode": "0x60806040526000600160146101000a81548160ff0219169083151502179055506000600160156101000a81548160ff021916908315150217905550600060065534801561004b57600080fd5b50604051604080610a338339810180604052604081101561006b57600080fd5b810190808051906020019092919080519060200190929190505050816000806101000a81548173ffffffffffffffffffffffffffffffffffffffff021916908373ffffffffffffffffffffffffffffffffffffffff16021790555080600160006101000a81548173ffffffffffffffffffffffffffffffffffffffff021916908373ffffffffffffffffffffffffffffffffffffffff160217905550505061091b806101186000396000f3fe6080604052600436106100905760003560e01c80637900fec7116100595780637900fec714610231578063a1e8f02c1461025c578063b30d1ce71461028b578063b69ef8a8146102e2578063f2ea9b231461030d57610090565b8062f714ce146100a25780633421f3b3146100fd5780633691a54414610154578063527097251461018357806373688914146101da575b34600660008282540192505081905550005b3480156100ae57600080fd5b506100fb600480360360408110156100c557600080fd5b8101908080359060200190929190803573ffffffffffffffffffffffffffffffffffffffff169060200190929190505050610338565b005b34801561010957600080fd5b50610112610820565b604051808273ffffffffffffffffffffffffffffffffffffffff1673ffffffffffffffffffffffffffffffffffffffff16815260200191505060405180910390f35b34801561016057600080fd5b50610169610846565b604051808215151515815260200191505060405180910390f35b34801561018f57600080fd5b50610198610859565b604051808273ffffffffffffffffffffffffffffffffffffffff1673ffffffffffffffffffffffffffffffffffffffff16815260200191505060405180910390f35b3480156101e657600080fd5b506101ef61087f565b604051808273ffffffffffffffffffffffffffffffffffffffff1673ffffffffffffffffffffffffffffffffffffffff16815260200191505060405180910390f35b34801561023d57600080fd5b506102466108a4565b6040518082815260200191505060405180910390f35b34801561026857600080fd5b506102716108aa565b604051808215151515815260200191505060405180910390f35b34801561029757600080fd5b506102a06108bd565b604051808273ffffffffffffffffffffffffffffffffffffffff1673ffffffffffffffffffffffffffffffffffffffff16815260200191505060405180910390f35b3480156102ee57600080fd5b506102f76108e3565b6040518082815260200191505060405180910390f35b34801561031957600080fd5b506103226108e9565b6040518082815260200191505060405180910390f35b6000809054906101000a900473ffffffffffffffffffffffffffffffffffffffff1673ffffffffffffffffffffffffffffffffffffffff163373ffffffffffffffffffffffffffffffffffffffff1614806103e05750600160009054906101000a900473ffffffffffffffffffffffffffffffffffffffff1673ffffffffffffffffffffffffffffffffffffffff163373ffffffffffffffffffffffffffffffffffffffff16145b610452576040517f08c379a000000000000000000000000000000000000000000000000000000000815260040180806020018281038252601f8152602001807f596f7520617265206e6f74206120636f6e7472616374206f776e65722e2e2e0081525060200191505060405180910390fd5b8160065410156104ca576040517f08c379a000000000000000000000000000000000000000000000000000000000815260040180806020018281038252601b8152602001807f52657175657374656420746f6f206d7563682065746865722e2e2e000000000081525060200191505060405180910390fd5b6000809054906101000a900473ffffffffffffffffffffffffffffffffffffffff1673ffffffffffffffffffffffffffffffffffffffff163373ffffffffffffffffffffffffffffffffffffffff1614156105825760018060146101000a81548160ff02191690831515021790555080600260006101000a81548173ffffffffffffffffffffffffffffffffffffffff021916908373ffffffffffffffffffffffffffffffffffffffff160217905550436004819055505b600160009054906101000a900473ffffffffffffffffffffffffffffffffffffffff1673ffffffffffffffffffffffffffffffffffffffff163373ffffffffffffffffffffffffffffffffffffffff16141561063b5760018060156101000a81548160ff02191690831515021790555080600360006101000a81548173ffffffffffffffffffffffffffffffffffffffff021916908373ffffffffffffffffffffffffffffffffffffffff160217905550436005819055505b600160149054906101000a900460ff1680156106635750600160159054906101000a900460ff165b80156106de5750600360009054906101000a900473ffffffffffffffffffffffffffffffffffffffff1673ffffffffffffffffffffffffffffffffffffffff16600260009054906101000a900473ffffffffffffffffffffffffffffffffffffffff1673ffffffffffffffffffffffffffffffffffffffff16145b80156106f2575061181b6005546004540311155b80610705575061181b6004546005540311155b1561081c57816006600082825403925050819055506000600160146101000a81548160ff0219169083151502179055506000600260006101000a81548173ffffffffffffffffffffffffffffffffffffffff021916908373ffffffffffffffffffffffffffffffffffffffff1602179055506000600160156101000a81548160ff0219169083151502179055506000600360006101000a81548173ffffffffffffffffffffffffffffffffffffffff021916908373ffffffffffffffffffffffffffffffffffffffff1602179055508073ffffffffffffffffffffffffffffffffffffffff166108fc839081150290604051600060405180830381858888f1935050505015801561081a573d6000803e3d6000fd5b505b5050565b600260009054906101000a900473ffffffffffffffffffffffffffffffffffffffff1681565b600160149054906101000a900460ff1681565b600160009054906101000a900473ffffffffffffffffffffffffffffffffffffffff1681565b6000809054906101000a900473ffffffffffffffffffffffffffffffffffffffff1681565b60055481565b600160159054906101000a900460ff1681565b600360009054906101000a900473ffffffffffffffffffffffffffffffffffffffff1681565b60065481565b6004548156fea165627a7a723058208a393c1f5af9a860df8913e218f4624fbeb4c77c73216754383f945026f1b19b0029",
  "source": "pragma solidity ^0.5.8;\n\ncontract MultiSig {\n    \n    address public owner1;\n    address public owner2;\n    bool public owner1RequestedWithdraw = false;\n    bool public owner2RequestedWithdraw = false;\n    address public owner1RequestedWithdrawTo;\n    address public owner2RequestedWithdrawTo;\n    uint public owner1RequestedWithdrawAtBlock;\n    uint public owner2RequestedWithdrawAtBlock;\n    uint public balance = 0;\n\n    modifier owner() {\n        require(msg.sender == owner1 || msg.sender == owner2, \"You are not a contract owner...\");\n        _;\n    }\n    \n    constructor(address _owner1, address _owner2) public {\n        owner1 = _owner1;\n        owner2 = _owner2;\n    }\n    \n    function() external payable {\n        balance += msg.value;\n    }\n    \n    function withdraw(uint _amount, address payable _to) public owner {\n        require(balance >= _amount, \"Requested too much ether...\");\n\n        if (msg.sender == owner1) {\n            owner1RequestedWithdraw = true;\n            owner1RequestedWithdrawTo = _to;\n            owner1RequestedWithdrawAtBlock = block.number;\n        }\n        if (msg.sender == owner2) {\n            owner2RequestedWithdraw = true;\n            owner2RequestedWithdrawTo = _to;\n            owner2RequestedWithdrawAtBlock = block.number;\n        }\n        if (owner1RequestedWithdraw && owner2RequestedWithdraw && owner1RequestedWithdrawTo == owner2RequestedWithdrawTo && owner1RequestedWithdrawAtBlock - owner2RequestedWithdrawAtBlock <= 6171 || owner2RequestedWithdrawAtBlock - owner1RequestedWithdrawAtBlock <= 6171) {\n            balance -= _amount;\n            owner1RequestedWithdraw = false;\n            owner1RequestedWithdrawTo = 0x0000000000000000000000000000000000000000;\n            owner2RequestedWithdraw = false;\n            owner2RequestedWithdrawTo = 0x0000000000000000000000000000000000000000;\n            _to.transfer(_amount);\n        }\n    }\n    \n}",
  "sourcePath": "/Users/huntercote/Desktop/code/apps/solidity/truffle-react/contracts/MultiSig.sol",
  "compiler": {
    "name": "solc",
    "version": "0.5.8+commit.23d335f2.Emscripten.clang"
  },
  "schemaVersion": "3.0.11",
  "updatedAt": "2019-07-03T18:41:19.251Z",
  "devdoc": {
    "methods": {}
  },
  "userdoc": {
    "methods": {}
  }
}