{
  "contractName": "MultiSig",
  "abi": [
    {
      "constant": true,
      "inputs": [],
      "name": "owner1RequestedWithdrawAmount",
      "outputs": [
        {
          "name": "",
          "type": "uint256"
        }
      ],
      "payable": false,
      "stateMutability": "view",
      "type": "function"
    },
    {
      "constant": true,
      "inputs": [],
      "name": "owner1RequestedWithdrawTo",
      "outputs": [
        {
          "name": "",
          "type": "address"
        }
      ],
      "payable": false,
      "stateMutability": "view",
      "type": "function"
    },
    {
      "constant": true,
      "inputs": [],
      "name": "owner1RequestedWithdraw",
      "outputs": [
        {
          "name": "",
          "type": "bool"
        }
      ],
      "payable": false,
      "stateMutability": "view",
      "type": "function"
    },
    {
      "constant": true,
      "inputs": [],
      "name": "owner2",
      "outputs": [
        {
          "name": "",
          "type": "address"
        }
      ],
      "payable": false,
      "stateMutability": "view",
      "type": "function"
    },
    {
      "constant": true,
      "inputs": [],
      "name": "owner1",
      "outputs": [
        {
          "name": "",
          "type": "address"
        }
      ],
      "payable": false,
      "stateMutability": "view",
      "type": "function"
    },
    {
      "constant": true,
      "inputs": [],
      "name": "owner2RequestedWithdrawAtBlock",
      "outputs": [
        {
          "name": "",
          "type": "uint256"
        }
      ],
      "payable": false,
      "stateMutability": "view",
      "type": "function"
    },
    {
      "constant": true,
      "inputs": [],
      "name": "owner2RequestedWithdraw",
      "outputs": [
        {
          "name": "",
          "type": "bool"
        }
      ],
      "payable": false,
      "stateMutability": "view",
      "type": "function"
    },
    {
      "constant": true,
      "inputs": [],
      "name": "owner2RequestedWithdrawTo",
      "outputs": [
        {
          "name": "",
          "type": "address"
        }
      ],
      "payable": false,
      "stateMutability": "view",
      "type": "function"
    },
    {
      "constant": true,
      "inputs": [],
      "name": "balance",
      "outputs": [
        {
          "name": "",
          "type": "uint256"
        }
      ],
      "payable": false,
      "stateMutability": "view",
      "type": "function"
    },
    {
      "constant": true,
      "inputs": [],
      "name": "owner1RequestedWithdrawAtBlock",
      "outputs": [
        {
          "name": "",
          "type": "uint256"
        }
      ],
      "payable": false,
      "stateMutability": "view",
      "type": "function"
    },
    {
      "constant": true,
      "inputs": [],
      "name": "owner2RequestedWithdrawAmount",
      "outputs": [
        {
          "name": "",
          "type": "uint256"
        }
      ],
      "payable": false,
      "stateMutability": "view",
      "type": "function"
    },
    {
      "inputs": [
        {
          "name": "_owner1",
          "type": "address"
        },
        {
          "name": "_owner2",
          "type": "address"
        }
      ],
      "payable": false,
      "stateMutability": "nonpayable",
      "type": "constructor"
    },
    {
      "payable": true,
      "stateMutability": "payable",
      "type": "fallback"
    },
    {
      "constant": false,
      "inputs": [
        {
          "name": "_amount",
          "type": "uint256"
        },
        {
          "name": "_to",
          "type": "address"
        }
      ],
      "name": "withdraw",
      "outputs": [],
      "payable": false,
      "stateMutability": "nonpayable",
      "type": "function"
    }
  ],
  "bytecode": "0x60806040526000600160146101000a81548160ff0219169083151502179055506000600160156101000a81548160ff021916908315150217905550600060065560006007556000600855600060095534801561005a57600080fd5b50604051604080610afb8339810180604052604081101561007a57600080fd5b810190808051906020019092919080519060200190929190505050816000806101000a81548173ffffffffffffffffffffffffffffffffffffffff021916908373ffffffffffffffffffffffffffffffffffffffff16021790555080600160006101000a81548173ffffffffffffffffffffffffffffffffffffffff021916908373ffffffffffffffffffffffffffffffffffffffff16021790555050506109d4806101276000396000f3fe6080604052600436106100a65760003560e01c80637900fec7116100645780637900fec714610272578063a1e8f02c1461029d578063b30d1ce7146102cc578063b69ef8a814610323578063f2ea9b231461034e578063fb798cf714610379576100a6565b8062f714ce146100b85780632089265b146101135780633421f3b31461013e5780633691a5441461019557806352709725146101c4578063736889141461021b575b34600960008282540192505081905550005b3480156100c457600080fd5b50610111600480360360408110156100db57600080fd5b8101908080359060200190929190803573ffffffffffffffffffffffffffffffffffffffff1690602001909291905050506103a4565b005b34801561011f57600080fd5b506101286108ab565b6040518082815260200191505060405180910390f35b34801561014a57600080fd5b506101536108b1565b604051808273ffffffffffffffffffffffffffffffffffffffff1673ffffffffffffffffffffffffffffffffffffffff16815260200191505060405180910390f35b3480156101a157600080fd5b506101aa6108d7565b604051808215151515815260200191505060405180910390f35b3480156101d057600080fd5b506101d96108ea565b604051808273ffffffffffffffffffffffffffffffffffffffff1673ffffffffffffffffffffffffffffffffffffffff16815260200191505060405180910390f35b34801561022757600080fd5b50610230610910565b604051808273ffffffffffffffffffffffffffffffffffffffff1673ffffffffffffffffffffffffffffffffffffffff16815260200191505060405180910390f35b34801561027e57600080fd5b50610287610935565b6040518082815260200191505060405180910390f35b3480156102a957600080fd5b506102b261093b565b604051808215151515815260200191505060405180910390f35b3480156102d857600080fd5b506102e161094e565b604051808273ffffffffffffffffffffffffffffffffffffffff1673ffffffffffffffffffffffffffffffffffffffff16815260200191505060405180910390f35b34801561032f57600080fd5b50610338610974565b6040518082815260200191505060405180910390f35b34801561035a57600080fd5b5061036361097a565b6040518082815260200191505060405180910390f35b34801561038557600080fd5b5061038e610980565b6040518082815260200191505060405180910390f35b6000809054906101000a900473ffffffffffffffffffffffffffffffffffffffff1673ffffffffffffffffffffffffffffffffffffffff163373ffffffffffffffffffffffffffffffffffffffff16148061044c5750600160009054906101000a900473ffffffffffffffffffffffffffffffffffffffff1673ffffffffffffffffffffffffffffffffffffffff163373ffffffffffffffffffffffffffffffffffffffff16145b6104be576040517f08c379a000000000000000000000000000000000000000000000000000000000815260040180806020018281038252601f8152602001807f596f7520617265206e6f74206120636f6e7472616374206f776e65722e2e2e0081525060200191505060405180910390fd5b816009541015610519576040517f08c379a00000000000000000000000000000000000000000000000000000000081526004018080602001828103825260228152602001806109876022913960400191505060405180910390fd5b816008819055506000809054906101000a900473ffffffffffffffffffffffffffffffffffffffff1673ffffffffffffffffffffffffffffffffffffffff163373ffffffffffffffffffffffffffffffffffffffff1614156105df5760018060146101000a81548160ff02191690831515021790555080600260006101000a81548173ffffffffffffffffffffffffffffffffffffffff021916908373ffffffffffffffffffffffffffffffffffffffff16021790555043600481905550816006819055505b600160009054906101000a900473ffffffffffffffffffffffffffffffffffffffff1673ffffffffffffffffffffffffffffffffffffffff163373ffffffffffffffffffffffffffffffffffffffff16141561069f5760018060156101000a81548160ff02191690831515021790555080600360006101000a81548173ffffffffffffffffffffffffffffffffffffffff021916908373ffffffffffffffffffffffffffffffffffffffff16021790555043600581905550816006819055505b600754600654106106b8576007546008819055506106c2565b6006546008819055505b600160149054906101000a900460ff1680156106ea5750600160159054906101000a900460ff165b80156107655750600360009054906101000a900473ffffffffffffffffffffffffffffffffffffffff1673ffffffffffffffffffffffffffffffffffffffff16600260009054906101000a900473ffffffffffffffffffffffffffffffffffffffff1673ffffffffffffffffffffffffffffffffffffffff16145b801561077957506117706005546004540311155b8061078c57506117706004546005540311155b156108a7576008546009600082825403925050819055506000600160146101000a81548160ff0219169083151502179055506000600260006101000a81548173ffffffffffffffffffffffffffffffffffffffff021916908373ffffffffffffffffffffffffffffffffffffffff1602179055506000600160156101000a81548160ff0219169083151502179055506000600360006101000a81548173ffffffffffffffffffffffffffffffffffffffff021916908373ffffffffffffffffffffffffffffffffffffffff1602179055508073ffffffffffffffffffffffffffffffffffffffff166108fc6008549081150290604051600060405180830381858888f193505050501580156108a5573d6000803e3d6000fd5b505b5050565b60065481565b600260009054906101000a900473ffffffffffffffffffffffffffffffffffffffff1681565b600160149054906101000a900460ff1681565b600160009054906101000a900473ffffffffffffffffffffffffffffffffffffffff1681565b6000809054906101000a900473ffffffffffffffffffffffffffffffffffffffff1681565b60055481565b600160159054906101000a900460ff1681565b600360009054906101000a900473ffffffffffffffffffffffffffffffffffffffff1681565b60095481565b60045481565b6007548156fe4e6f7420656e6f75676820657468657220696e20796f75722077616c6c65742e2e2ea165627a7a72305820b6bdf2ccff54b10d0c2ed59cd5ae217cd9f92e1cd0578ad33259367644e8d96a0029",
  "source": "pragma solidity ^0.5.8;\n\ncontract MultiSig {\n    \n    address public owner1;\n    address public owner2;\n    bool public owner1RequestedWithdraw = false;\n    bool public owner2RequestedWithdraw = false;\n    address public owner1RequestedWithdrawTo;\n    address public owner2RequestedWithdrawTo;\n    uint public owner1RequestedWithdrawAtBlock;\n    uint public owner2RequestedWithdrawAtBlock;\n    uint public owner1RequestedWithdrawAmount = 0;\n    uint public owner2RequestedWithdrawAmount = 0;\n    uint private amountBeingWithdrawn = 0;\n    uint public balance = 0;\n\n    modifier owner() {\n        require(msg.sender == owner1 || msg.sender == owner2, \"You are not a contract owner...\");\n        _;\n    }\n    \n    constructor(address _owner1, address _owner2) public {\n        owner1 = _owner1;\n        owner2 = _owner2;\n    }\n    \n    function() external payable {\n        balance += msg.value;\n    }\n    \n    function withdraw(uint _amount, address payable _to) public owner {\n        require(balance >= _amount, \"Not enough ether in your wallet...\");\n\n        amountBeingWithdrawn = _amount;\n\n        if (msg.sender == owner1) {\n            owner1RequestedWithdraw = true;\n            owner1RequestedWithdrawTo = _to;\n            owner1RequestedWithdrawAtBlock = block.number;\n            owner1RequestedWithdrawAmount = _amount;\n        }\n\n        if (msg.sender == owner2) {\n            owner2RequestedWithdraw = true;\n            owner2RequestedWithdrawTo = _to;\n            owner2RequestedWithdrawAtBlock = block.number;\n            owner1RequestedWithdrawAmount = _amount;\n        }\n\n        if (owner1RequestedWithdrawAmount >= owner2RequestedWithdrawAmount) {\n            amountBeingWithdrawn = owner2RequestedWithdrawAmount;\n        } else {\n            amountBeingWithdrawn = owner1RequestedWithdrawAmount;\n        }\n\n        if (owner1RequestedWithdraw && owner2RequestedWithdraw && \n        owner1RequestedWithdrawTo == owner2RequestedWithdrawTo && \n        owner1RequestedWithdrawAtBlock - owner2RequestedWithdrawAtBlock <= 6000 || \n        owner2RequestedWithdrawAtBlock - owner1RequestedWithdrawAtBlock <= 6000) {\n            balance -= amountBeingWithdrawn;\n            owner1RequestedWithdraw = false;\n            owner1RequestedWithdrawTo = 0x0000000000000000000000000000000000000000;\n            owner2RequestedWithdraw = false;\n            owner2RequestedWithdrawTo = 0x0000000000000000000000000000000000000000;\n            _to.transfer(amountBeingWithdrawn);\n        }\n    }\n    \n}",
  "sourcePath": "/Users/huntercote/Desktop/code/apps/solidity/truffle-react/contracts/MultiSig.sol",
  "compiler": {
    "name": "solc",
    "version": "0.5.8+commit.23d335f2.Emscripten.clang"
  },
  "schemaVersion": "3.0.11",
  "updatedAt": "2019-07-21T02:26:44.187Z",
  "devdoc": {
    "methods": {}
  },
  "userdoc": {
    "methods": {}
  }
}