{
  "contractName": "MultiSig",
  "abi": [
    {
      "constant": true,
      "inputs": [],
      "name": "owner1RequestedWithdrawTo",
      "outputs": [
        {
          "name": "",
          "type": "address"
        }
      ],
      "payable": false,
      "stateMutability": "view",
      "type": "function"
    },
    {
      "constant": true,
      "inputs": [],
      "name": "owner1RequestedWithdraw",
      "outputs": [
        {
          "name": "",
          "type": "bool"
        }
      ],
      "payable": false,
      "stateMutability": "view",
      "type": "function"
    },
    {
      "constant": true,
      "inputs": [],
      "name": "owner2",
      "outputs": [
        {
          "name": "",
          "type": "address"
        }
      ],
      "payable": false,
      "stateMutability": "view",
      "type": "function"
    },
    {
      "constant": true,
      "inputs": [],
      "name": "owner1",
      "outputs": [
        {
          "name": "",
          "type": "address"
        }
      ],
      "payable": false,
      "stateMutability": "view",
      "type": "function"
    },
    {
      "constant": true,
      "inputs": [],
      "name": "owner2RequestedWithdrawAtBlock",
      "outputs": [
        {
          "name": "",
          "type": "uint256"
        }
      ],
      "payable": false,
      "stateMutability": "view",
      "type": "function"
    },
    {
      "constant": true,
      "inputs": [],
      "name": "owner2RequestedWithdraw",
      "outputs": [
        {
          "name": "",
          "type": "bool"
        }
      ],
      "payable": false,
      "stateMutability": "view",
      "type": "function"
    },
    {
      "constant": true,
      "inputs": [],
      "name": "owner2RequestedWithdrawTo",
      "outputs": [
        {
          "name": "",
          "type": "address"
        }
      ],
      "payable": false,
      "stateMutability": "view",
      "type": "function"
    },
    {
      "constant": true,
      "inputs": [],
      "name": "balance",
      "outputs": [
        {
          "name": "",
          "type": "uint256"
        }
      ],
      "payable": false,
      "stateMutability": "view",
      "type": "function"
    },
    {
      "constant": true,
      "inputs": [],
      "name": "owner1RequestedWithdrawAtBlock",
      "outputs": [
        {
          "name": "",
          "type": "uint256"
        }
      ],
      "payable": false,
      "stateMutability": "view",
      "type": "function"
    },
    {
      "inputs": [
        {
          "name": "_owner1",
          "type": "address"
        },
        {
          "name": "_owner2",
          "type": "address"
        }
      ],
      "payable": false,
      "stateMutability": "nonpayable",
      "type": "constructor"
    },
    {
      "payable": true,
      "stateMutability": "payable",
      "type": "fallback"
    },
    {
      "constant": true,
      "inputs": [],
      "name": "getOwner1",
      "outputs": [
        {
          "name": "",
          "type": "address"
        }
      ],
      "payable": false,
      "stateMutability": "view",
      "type": "function"
    },
    {
      "constant": false,
      "inputs": [
        {
          "name": "_amount",
          "type": "uint256"
        },
        {
          "name": "_to",
          "type": "address"
        }
      ],
      "name": "withdraw",
      "outputs": [],
      "payable": false,
      "stateMutability": "nonpayable",
      "type": "function"
    }
  ],
  "bytecode": "0x60806040526000600160146101000a81548160ff0219169083151502179055506000600160156101000a81548160ff02191690831515021790555034801561004657600080fd5b506040516040806109e78339810180604052604081101561006657600080fd5b810190808051906020019092919080519060200190929190505050816000806101000a81548173ffffffffffffffffffffffffffffffffffffffff021916908373ffffffffffffffffffffffffffffffffffffffff16021790555080600160006101000a81548173ffffffffffffffffffffffffffffffffffffffff021916908373ffffffffffffffffffffffffffffffffffffffff16021790555050506108d4806101136000396000f3fe60806040526004361061009b5760003560e01c80637900fec7116100645780637900fec71461023c578063a1e8f02c14610267578063b30d1ce714610296578063b69ef8a8146102ed578063eeaf34ce14610318578063f2ea9b231461036f5761009b565b8062f714ce146100ad5780633421f3b3146101085780633691a5441461015f578063527097251461018e57806373688914146101e5575b34600660008282540192505081905550005b3480156100b957600080fd5b50610106600480360360408110156100d057600080fd5b8101908080359060200190929190803573ffffffffffffffffffffffffffffffffffffffff16906020019092919050505061039a565b005b34801561011457600080fd5b5061011d6107b0565b604051808273ffffffffffffffffffffffffffffffffffffffff1673ffffffffffffffffffffffffffffffffffffffff16815260200191505060405180910390f35b34801561016b57600080fd5b506101746107d6565b604051808215151515815260200191505060405180910390f35b34801561019a57600080fd5b506101a36107e9565b604051808273ffffffffffffffffffffffffffffffffffffffff1673ffffffffffffffffffffffffffffffffffffffff16815260200191505060405180910390f35b3480156101f157600080fd5b506101fa61080f565b604051808273ffffffffffffffffffffffffffffffffffffffff1673ffffffffffffffffffffffffffffffffffffffff16815260200191505060405180910390f35b34801561024857600080fd5b50610251610834565b6040518082815260200191505060405180910390f35b34801561027357600080fd5b5061027c61083a565b604051808215151515815260200191505060405180910390f35b3480156102a257600080fd5b506102ab61084d565b604051808273ffffffffffffffffffffffffffffffffffffffff1673ffffffffffffffffffffffffffffffffffffffff16815260200191505060405180910390f35b3480156102f957600080fd5b50610302610873565b6040518082815260200191505060405180910390f35b34801561032457600080fd5b5061032d610879565b604051808273ffffffffffffffffffffffffffffffffffffffff1673ffffffffffffffffffffffffffffffffffffffff16815260200191505060405180910390f35b34801561037b57600080fd5b506103846108a2565b6040518082815260200191505060405180910390f35b6000809054906101000a900473ffffffffffffffffffffffffffffffffffffffff1673ffffffffffffffffffffffffffffffffffffffff163373ffffffffffffffffffffffffffffffffffffffff1614806104425750600160009054906101000a900473ffffffffffffffffffffffffffffffffffffffff1673ffffffffffffffffffffffffffffffffffffffff163373ffffffffffffffffffffffffffffffffffffffff16145b61044b57600080fd5b60065482111561045a57600080fd5b6000809054906101000a900473ffffffffffffffffffffffffffffffffffffffff1673ffffffffffffffffffffffffffffffffffffffff163373ffffffffffffffffffffffffffffffffffffffff1614156105125760018060146101000a81548160ff02191690831515021790555080600260006101000a81548173ffffffffffffffffffffffffffffffffffffffff021916908373ffffffffffffffffffffffffffffffffffffffff160217905550436004819055505b600160009054906101000a900473ffffffffffffffffffffffffffffffffffffffff1673ffffffffffffffffffffffffffffffffffffffff163373ffffffffffffffffffffffffffffffffffffffff1614156105cb5760018060156101000a81548160ff02191690831515021790555080600360006101000a81548173ffffffffffffffffffffffffffffffffffffffff021916908373ffffffffffffffffffffffffffffffffffffffff160217905550436005819055505b600160149054906101000a900460ff1680156105f35750600160159054906101000a900460ff165b801561066e5750600360009054906101000a900473ffffffffffffffffffffffffffffffffffffffff1673ffffffffffffffffffffffffffffffffffffffff16600260009054906101000a900473ffffffffffffffffffffffffffffffffffffffff1673ffffffffffffffffffffffffffffffffffffffff16145b8015610682575061181b6005546004540311155b80610695575061181b6004546005540311155b156107ac57816006600082825403925050819055506000600160146101000a81548160ff0219169083151502179055506000600260006101000a81548173ffffffffffffffffffffffffffffffffffffffff021916908373ffffffffffffffffffffffffffffffffffffffff1602179055506000600160156101000a81548160ff0219169083151502179055506000600360006101000a81548173ffffffffffffffffffffffffffffffffffffffff021916908373ffffffffffffffffffffffffffffffffffffffff1602179055508073ffffffffffffffffffffffffffffffffffffffff166108fc839081150290604051600060405180830381858888f193505050501580156107aa573d6000803e3d6000fd5b505b5050565b600260009054906101000a900473ffffffffffffffffffffffffffffffffffffffff1681565b600160149054906101000a900460ff1681565b600160009054906101000a900473ffffffffffffffffffffffffffffffffffffffff1681565b6000809054906101000a900473ffffffffffffffffffffffffffffffffffffffff1681565b60055481565b600160159054906101000a900460ff1681565b600360009054906101000a900473ffffffffffffffffffffffffffffffffffffffff1681565b60065481565b60008060009054906101000a900473ffffffffffffffffffffffffffffffffffffffff16905090565b6004548156fea165627a7a723058207400e5b020ad485ed30416bffe3da85b1babd784502450ef208a535873cd6c000029",
  "source": "pragma solidity ^0.5.8;\n\ncontract MultiSig {\n    \n    address public owner1;\n    address public owner2;\n    bool public owner1RequestedWithdraw = false;\n    bool public owner2RequestedWithdraw = false;\n    address public owner1RequestedWithdrawTo;\n    address public owner2RequestedWithdrawTo;\n    uint public owner1RequestedWithdrawAtBlock;\n    uint public owner2RequestedWithdrawAtBlock;\n    uint public balance;\n\n    function getOwner1() public view returns (address) {\n        return owner1;\n    }\n    \n    modifier owner() {\n        require(msg.sender == owner1 || msg.sender == owner2);\n        _;\n    }\n    \n    constructor(address _owner1, address _owner2) public {\n        owner1 = _owner1;\n        owner2 = _owner2;\n    }\n    \n    function() external payable {\n        balance += msg.value;\n    }\n    \n    function withdraw(uint _amount, address payable _to) public owner {\n        require(_amount <= balance);\n\n        if (msg.sender == owner1) {\n            owner1RequestedWithdraw = true;\n            owner1RequestedWithdrawTo = _to;\n            owner1RequestedWithdrawAtBlock = block.number;\n        }\n        if (msg.sender == owner2) {\n            owner2RequestedWithdraw = true;\n            owner2RequestedWithdrawTo = _to;\n            owner2RequestedWithdrawAtBlock = block.number;\n        }\n        if (owner1RequestedWithdraw && owner2RequestedWithdraw && \n            owner1RequestedWithdrawTo == owner2RequestedWithdrawTo && \n            owner1RequestedWithdrawAtBlock - owner2RequestedWithdrawAtBlock <= 6171 || \n            owner2RequestedWithdrawAtBlock - owner1RequestedWithdrawAtBlock <= 6171) {\n                \n            balance -= _amount;\n            owner1RequestedWithdraw = false;\n            owner1RequestedWithdrawTo = 0x0000000000000000000000000000000000000000;\n            owner2RequestedWithdraw = false;\n            owner2RequestedWithdrawTo = 0x0000000000000000000000000000000000000000;\n            _to.transfer(_amount);\n        }\n    }\n    \n}",
  "sourcePath": "/Users/huntercote/Desktop/code/apps/solidity/truffle-react/contracts/MultiSig.sol",
  "compiler": {
    "name": "solc",
    "version": "0.5.8+commit.23d335f2.Emscripten.clang"
  },
  "schemaVersion": "3.0.11",
  "updatedAt": "2019-07-02T18:33:05.339Z",
  "devdoc": {
    "methods": {}
  },
  "userdoc": {
    "methods": {}
  }
}